:1000000020010020E9120000DD120000E1120000D2
:10001000E5120000E5120000E512000000000000FB
:10002000000000000000000000000000E5120000D9
:10003000E512000000000000E5120000E5120000DB
:10004000E5120000E5120000E5120000E5120000D4
:10005000E5120000A1010000E5120000E512000019
:10006000E5120000E5120000E5120000E5120000B4
:10007000E5120000E5120000E5120000E5120000A4
:10008000E512000061030000E5120000E512000027
:10009000E512000009040000E5120000E51200006E
:1000A000E5120000E5120000E5120000E512000074
:1000B000E5120000E5120000E5120000E512000064
:1000C000E5120000E5120000E5120000E512000054
:1000D000E5120000E5120000E5120000E512000044
:1000E000E5120000E5120000E5120000E512000034
:1000F000704700BFF8B505460F4600294DD04CF2B9
:1001000000004E1EC4F200002978012401F058FBC3
:10011000A74206F0030642D0EEB1012E11D0022E06
:1001200007D04CF20000C4F20000697801F048FBEF
:1001300002244CF20000295DC4F2000001F040FBF3
:1001400001344CF20000295DC4F20000013401F0DA
:1001500037FBA74222D04CF20000295DC4F2000018
:1001600001F02EFB661C4CF20000A95DC4F20000F9
:1001700001F026FB01364CF20000A95DC4F200003C
:1001800001F01EFBE31C4CF20000C4F20000E95C2D
:10019000043401F015FBA742DDD1F8BDF8BDF8BD70
:1001A0004CF20000012108B5C4F2000001F016FB7A
:1001B00001464CF20000C4F2000001F015FB0CE017
:1001C0004CF20000C4F2000001F0F2FAC1B24CF2AD
:1001D0000000C4F2000001F0F3FA4CF20000C4F297
:1001E000000001F0DFFA0028EAD108BD40F201006A
:1001F00010B5C1F2000001F0CBF840F20100C2F2EC
:10020000000001F0C5F844F200000321C4F2000030
:1002100000F098FA01F0EAF801464CF20000C4F24E
:1002200000004FF4E1326023BDE8104001F084BAD1
:1002300010B500F047FB212000F008FB252000F05E
:1002400005FB48F200000321C4F2030000F0F4F8BB
:10025000152000F0FBFA4CF20000C4F2000050211F
:10026000BDE8104001F0B6BA10B540F2010040F20E
:100270000004C4F20304C1F2100001F089F8222145
:10028000204601F01FFA01F0B1F844F6D351C1F253
:100290006201A1FB0032FF21920A204601F03CFAE4
:1002A00001222046FF2101F023FAFF21204601F020
:1002B000FDF941F2000440F20200C4F20304C1F26D
:1002C000100001F065F82221204601F0FBF901F051
:1002D0008DF8FF210246204601F01EFA204601213A
:1002E00001F024FA2046FF21BDE8104001F0DEB9FC
:1002F00010B540F2010048F20004C4F20304C0F259
:10030000100001F045F80321204600F0A1F8204636
:1003100003210522002300F0A3F820460321002238
:10032000602300F0B9F82046032100F08BF8204646
:100330000321BDE8104000F077B800BF44F2402030
:1003400010B5C0F20F0000F0A3FE41F2EC70C0F255
:1003500000001E2128220723BDE8104000F012BB38
:1003600070B548F2000040F200040321C4F203001B
:10037000C2F2000400F060F8236840F67F46B34202
:1003800022D940F21005C2F200052B68B34200D911
:1003900070BD40F2201CC2F2000C48F200000CEBD1
:1003A000830203210133C4F203002B6000F0B4F890
:1003B0002868B042ECD140F20C00C2F200000022EA
:1003C00001212260016070BD43F22032C2F20002BE
:1003D00048F2000002EB830203210133C4F2030060
:1003E000236000F099F82368B342D1D140F21002A3
:1003F00040F20403C2F20002C2F200030021012015
:100400001160186070BD00BF41F2000008B5C4F271
:100410000300012101F08EF940F20803C2F200034B
:1004200001221A6008BD00BF01238B40C3608268AF
:1004300013438360704700BF012212FA01F3C360C7
:10044000704700BF01238B4002681343036070476D
:1004500001238B40026822EA03030360704700BF58
:1004600089004FF00F0C0CFA01FC02F00F028A40D9
:1004700003F0030313FA01F143696FEA0C0C0CEA71
:10048000030343EA02024261036A0CEA030C4CEAEA
:1004900001010162704700BF9200F0B40F2717FA04
:1004A00002F603F00F059540C3F303249440C3F311
:1004B000031C0CFA02FC023149010F58F64306EA0C
:1004C000070747EA05050D5009188869304040EADA
:1004D00004048C614868304040EA0C0013F4702F2B
:1004E000486008D1012313FA02F00B6923EA0002E5
:1004F0000A61F0BC7047C3F302439340012010FA35
:1005000002F2486900EA06061E434E610B6943EA9F
:1005100002020A61EDE700BF023100EB4111CB6836
:1005200010B413F4807F36D18868134643F8040B67
:10053000C86810F4807F30D18C68181D5460CA6878
:1005400012F4807F2BD18C68021D5C60CB6813F4A1
:10055000807F26D18C68131D4460C86810F4807FAA
:1005600021D18C68181D5460CA6812F4807F1CD198
:100570008A68041D5A60CB6813F4807F17D18B689A
:100580004360C86810F4807F13D18A6808206260D5
:10059000CB6810BC70470020FBE70120F9E7022080
:1005A000F7E70320F5E70420F3E70520F1E706204D
:1005B000EFE70720EDE700BFEFF3108062B670476A
:1005C00012F0010F70B4D0F8005502BF6FEA010CB1
:1005D0000CEA050500F5A06404D000F5A0640D4305
:1005E0006FEA010C256012F0020FD0F8046547D0C5
:1005F000251D0E432E60D0F8086512F0040F08BFC9
:100600000CEA060600F5A16518BF0E432E60D0F86F
:10061000185512F0080F08BF0CEA050500F5A36293
:1006200018BF0D43156013F0010FD0F80C253ED014
:100630000C340A432260D0F8104513F0020F0CBFAF
:100640000CEA04040C4300F5A262146013F0040FDA
:10065000D0F8144527D004320C4313F0080F14606F
:1006600012D0D0F81C3543EA0101C0F81C15D0F8AF
:10067000281500F5A5600CEA0101016070BC704707
:10068000251D0CEA0606B5E7D0F81C250CEA020287
:10069000C0F81C25002BEAD1D0F8283500F5A5605C
:1006A00043EA0101E9E704320CEA0404D5E70C341B
:1006B0000CEA0202BEE700BF40F82120704700BFED
:1006C000D0F80024CB4303EA0202C0F80024D0F89B
:1006D00020240A43C0F82024D0F800250A43C0F89B
:1006E0000025D0F8042503EA0202C0F80425D0F85A
:1006F000082503EA0202C0F80825D0F8182503EA05
:100700000202C0F81825D0F80C2503EA0202C0F84E
:100710000C25D0F8102503EA0202C0F81025D0F805
:10072000142503EA0202C0F81425D0F81C2542EA79
:100730000101C0F81C15D0F828251340C0F8283551
:10074000704700BFD0F80024CB4303EA0202C0F890
:100750000024D0F820240A43C0F82024D0F8002533
:100760000A43C0F80025D0F8042503EA0202C0F8C5
:100770000425D0F8082503EA0202C0F80825D0F8BD
:10078000182503EA0202C0F81825D0F80C2503EA60
:100790000202C0F80C25D0F8102503EA0202C0F8C6
:1007A0001025D0F8142503EA0202C0F81425D0F869
:1007B0001C2542EA0101C0F81C15D0F82825134079
:1007C000C0F82835704700BFD0F800350B43C0F89B
:1007D0000035D0F80425CB4303EA0202C0F8042513
:1007E000D0F8082503EA0202C0F80825D0F8182539
:1007F00003EA0202C0F81825D0F80C2503EA020229
:10080000C0F80C25D0F8102503EA0202C0F8102524
:10081000D0F8142503EA0202C0F81425D0F81C25EC
:100820000A43C0F81C25D0F8282503EA0202C0F8C4
:100830002825D0F8002442EA0101C0F80014D0F8BD
:1008400020241340C0F82034704700BF04281DD076
:10085000052824D006282BD00F280ED00CD910380C
:1008600000F01F0301229A4041F2F471C0F200012E
:10087000400951F820301A6070474EF21000CEF255
:100880000000016841F00202026070474EF62453F6
:10089000CEF20003186840F480321A6070474EF6BA
:1008A0002453CEF200031A6842F4003119607047F5
:1008B0004EF62451CEF200010B6843F4802008600C
:1008C000704700BF08B5FFF777FEC0B208BD00BF94
:1008D00030B583B0042302AC44F8043D002503E0A6
:1008E0002046FFF705FC019B042BF9D1FFF726FDFD
:1008F000FFF7BAFCFFF7FCFCFFF778FCFFF798FC6A
:1009000041F60800C0F200000C21FFF7F3FB01954F
:10091000E6E700BFF0B548F20004C4F2000483B07B
:100920000746204600F0C8FC00F060FD44F20005D8
:100930000146082603220023C4F200052046009742
:10094000019600F08BFC28463146FFF7B9FE314690
:1009500004220A232846FFF733FE204600F0A6FCB7
:1009600040F21C03C2F2000303F0704223F07F4CFC
:1009700042F000712CF4700041EA40120123136030
:1009800003B0F0BD2DE9F04F40F21C05C2F20005A6
:1009900025F07F4424F4700C05F0704B40F21404F1
:1009A000C2F200044FEA510A4BF0007815263F27A7
:1009B0004FEA4C1CA7708946267084F801A048EACB
:1009C0000C010E6885B0039017469B46E6B148F0CF
:1009D000040242EA0C000368002B40F0928148F2C6
:1009E0000000C4F20000217800F06CFC48F2000026
:1009F000C4F20000617800F065FC48F20000C4F227
:100A00000000A17800F05EFC25F07F4CF9B22CF4D8
:100A1000700305F07042C81D5B0142F000764FF094
:100A2000750A84F800A0A07061701E433768F7B1A2
:100A300042F0007646F0040E4EEA03073A68002AB8
:100A400040F07E8148F20000C4F20000217800F0FE
:100A500039FC48F20000C4F20000617800F032FC7A
:100A600048F20000C4F20000A17800F02BFC25F051
:100A70007F4020F4700105F070424B0142F0007697
:100A80001E433768BFB142F0007A4AF0040E4EEAC6
:100A900003073B68002B40F0728148F20000C4F26B
:100AA0000000A02100F00EFC48F20000C4F200009B
:100AB000562100F007FC25F07F4305F0704A23F42F
:100AC00070024AF0007C57014CF0040139434AF0AF
:100AD0000075002002913D43039900900195024664
:100AE0008B5C4FEA0B1640F2140AF7B2C2F2000A0E
:100AF0000BF00F0B0646002B00F0008103F07F0384
:100B00001F2B98BF4FF0000802D9203B5FFA83F8F3
:100B100041F61805C0F2000508EB8808A844002536
:100B200098F80030267013F001021EBF3A468AF88A
:100B300000203A46032D07D898F8011011F0010F54
:100B40001CBF42EA0B02227013F0020218BF3946A2
:100B500066701CBF3A468AF80110032D07D898F832
:100B6000011011F0020F1CBF42EA0B02627013F079
:100B7000040218BF3A46A6701CBF8AF802203A4603
:100B8000032D07D898F8011011F0040F1CBF42EA9A
:100B90000B02A27013F0080218BF3946E6701CBFA2
:100BA0003A468AF80310032D07D898F8011011F07F
:100BB000080F1CBF42EA0B02E27013F0100218BFCC
:100BC0003A4626711CBF8AF804203A46032D07D8FE
:100BD00098F8011011F0100F1CBF42EA0B022271AD
:100BE00013F0200218BF394666711CBF3A468AF8D6
:100BF0000510032D07D898F801C01CF0200F1CBF6A
:100C000042EA0B02627113F0400218BF3A46A67125
:100C10001CBF8AF806203A46032D07D898F8010031
:100C200010F0400F1CBF42EA0B02A27113F08003C8
:100C300018BF3B46E6711CBF8AF807303B46032DC0
:100C400007D898F8011011F0800F1CBF43EA0B037E
:100C5000E37101990B68002B3CD002990A68002AC5
:100C600000F0AC8048F20000C4F20000217800F0EF
:100C700029FB48F20000C4F20000617800F022FB7A
:100C800048F20000C4F20000A17800F01BFB48F21B
:100C90000000C4F20000E17800F014FB48F200000C
:100CA000C4F20000217900F00DFB48F20000C4F20C
:100CB0000000617900F006FB48F20000C4F2000079
:100CC000A17900F0FFFA48F20000C4F20000E179D7
:100CD00000F0F8FA09F10209B9F1800F0ED00235DF
:100CE000062D08F102087FF41BAF009A511C0091F9
:100CF0000A4603998B5C002B7FF400AF05B0BDE87A
:100D0000F08F48F20000C4F2000000F0E3FA06465B
:100D10000028F6D146F20000C4F2000080213246DD
:100D2000FFF7CAFC05F0704242F0007325F07F40E7
:100D300043F0040A20F4700C4AEA4C110E604EE6AF
:100D400048F20000C4F2000000F0C4FA0646002891
:100D5000F6D146F20000C4F2000080213246FFF7CF
:100D6000ABFC05F0704242F0007325F07F4C43F07D
:100D700004002CF4700A40EA4A110E6062E648F260
:100D80000000C4F2000000F0A5FA06460028F6D1E3
:100D900046F20000C4F200008021324605F07047A0
:100DA000FFF78AFC47F0007325F07F4043F0040C06
:100DB00020F470024CEA42110E606EE648F2000028
:100DC000C4F2000000F086FA0028F7D1802146F234
:100DD0000000C4F200000A46FFF76EFC02980123EF
:100DE00003603FE72DE9F84540F21C05C2F200051B
:100DF00025F07F4020F4700340F2140405F07047A2
:100E0000C2F2000400265B0147F0007066602660B5
:100E100040EA03021168E1B140F0040848EA030621
:100E20003168002940F0CE8048F20000C4F2000092
:100E3000152100F047FA48F20000C4F2000000213A
:100E400000F040FA48F20000C4F200003F2100F038
:100E500039FA25F07F4828F4700005F0704243010C
:100E600042F000771F433E68F6B142F0007A4AF044
:100E7000040E4EEA03031A68002A40F0C28048F2CA
:100E80000000C4F20000752100F01CFA48F20000D6
:100E9000C4F20000002100F015FA48F20000C4F28C
:100EA00000007F2100F00EFA25F07F4A2AF470033B
:100EB00005F070425B0142F0007119430E68BEB14B
:100EC00042F0007C4CF0040E4EEA03000768002F4D
:100ED00040F0B68048F20000C4F20000A02100F00B
:100EE000F1F948F20000C4F20000522100F0EAF9E2
:100EF00025F07F4805F0704628F4700146F0007C2C
:100F000048014CF0040746F00075074345EA000627
:100F10004FF000084FF0010A00253AE048F20000C7
:100F2000C4F20000217800F0CDF948F20000C4F2CC
:100F30000000617800F0C6F948F20000C4F2000039
:100F4000A17800F0BFF948F20000C4F20000E17897
:100F500000F0B8F948F20000C4F20000217900F076
:100F6000B1F948F20000C4F20000617900F0AAF97A
:100F700048F20000C4F20000A17900F0A3F948F2A1
:100F80000000C4F20000E17900F09CF90135082D61
:100F900075D03268002AF9D03B68002BBED148F2E8
:100FA0000000C4F2000000F095F90028F7D180217C
:100FB00046F20000C4F200000A46FFF77DFBC7F8C6
:100FC00000A0ABE748F20000C4F2000000F082F994
:100FD00006460028F6D146F20000C4F20000802147
:100FE0003246FFF769FB05F0704141F0007325F0D0
:100FF0007F4043F0040C20F470024CEA42173E603C
:1010000012E748F20000C4F2000000F063F906465F
:101010000028F6D146F20000C4F2000080213246DA
:10102000FFF74AFB05F0704242F0007825F07F4060
:1010300048F0040C20F470074CEA47110E601EE7DC
:1010400048F20000C4F2000000F044F9064600280F
:10105000F6D146F2000080213246C4F2000005F0CD
:101060007047FFF729FB25F07F4A47F0007343F0F4
:1010700004082AF4700248EA42110E602AE708F1D7
:101080000108B8F1600F7FF447AFBDE8F88500BFF5
:101090002DE9F84F044640F21000C1F2000000F0C4
:1010A00077F940F20100C2F2000000F071F940F25D
:1010B0000400C2F2000000F06BF944F20000C4F238
:1010C00000002C21FFF7FCFA44F2000004220A235E
:1010D000C4F200002C21FFF773FA46F20000C4F2BC
:1010E0000000C021FFF770FB46F200000823C4F2A5
:1010F0000000C0210422FFF763FA40F21C06C02161
:1011000046F200000A46C2F20006C4F20000FFF7F1
:10111000D3FA06F0704726F07F4222F4700147F0C0
:1011200000704D0140F00408012348EA05082046FC
:10113000C8F80030FFF7EEFBFFF754FE41F6F81653
:1011400047F0007747EA050AC0F200060024DAF803
:101150000030355D002B66D0D8F80000002868D13B
:10116000013D5FD004F1010948F2000005F1FF3BA9
:1011700016F80910C4F2000000F0A4F8B1440BF016
:10118000030301275D46BBF1000F4BD013B3012BC6
:1011900015D0022B09D048F2000019F80710C4F24C
:1011A000000000F08FF8013D022748F2000019F816
:1011B0000710C4F2000000F085F8013D013748F245
:1011C000000019F80710C4F2000000F07BF80137A6
:1011D000013D27D048F2000019F80710C4F20000C2
:1011E00000F070F807F1010B48F2000019F80B103D
:1011F000C4F2000000F066F80BF1010B48F20000A9
:10120000C4F2000019F80B1000F05CF8FA1C48F268
:101210000000C4F2000019F8021000F053F804377F
:10122000043DD7D1355D013564194E2C8FD9BDE809
:10123000F88F48F20000C4F2000000F04BF80746B7
:101240000028F6D146F20000C4F2000080213A46A0
:10125000FFF732FAC8F8007082E700BF022B1CD0FB
:10126000FBB94360009BB1FBF3F100230233B1FBF8
:10127000F3FC0CF1FF3CBCF1FF0FF7D8910101F03A
:10128000FF0102F0300241EA0202019903610139D3
:101290000A4342EA0C2202607047082343F0040329
:1012A000DFE7002343F00403DBE700BF416841F0C0
:1012B00002034360704700BF416821F002034360AE
:1012C000704700BF00F10C02136813F0020FFBD04F
:1012D00081607047C068C0F300107047FEE700BF30
:1012E000FEE700BFFEE700BF40F2000240F2000050
:1012F000C2F20002C2F2000082422DE9F00536D2AD
:1013000041F6C021C0F200010B681446D54344F8F1
:10131000043B2D1804238442C5F3810527D285B1EF
:10132000012D07D0022D02D04D68082325605C589E
:101330009C5004335C589C50043303EB020C8445EE
:1013400015D25E5803F1040C9E5003F10C040CF10D
:10135000040510335CF801A055F8018067589E1809
:1013600086424CF802A045F80280A750E9D306480F
:1013700006494FF000028842B8BF40F8042BFADB60
:10138000BDE8F005FFF7A4BA000000203965002091
:1013900000F07043B3F1704F0ED0C0F3044182B23D
:1013A0008A4041F6B423C0F20003000F53F8203006
:1013B00019680A431A6070474EF2006300F0FF029A
:1013C000C4F20F03C0F30720C318910041F000706E
:1013D00023F07F4203F0704340EA030C22F47001D3
:1013E0004CEA411201201060704700BF4EF26003CA
:1013F0004EF27002C4F20F03C4F20F021B681268AF
:1014000030B4002AB4BF02F0700103F0300120298B
:1014100000F0BC800AD9602900F0B580702900F086
:101420009880302900F09F80002055E0002955D198
:1014300041F64821C0F20001C3F3841051F82000A6
:10144000002AC0F28B8013F4006F3AD14EF20004F0
:10145000C4F20F04256840F20001C7F2FF0140F218
:10146000000C05EA0101C1F2050C614500F0D680CF
:101470004EF26405C4F20F052968256815F0E04FA7
:1014800074D0246840F2000CC7F2FF0C04EA0C0C84
:10149000BCF1805F6AD0C1F3481C0CFB00F001F086
:1014A0001F0C0CF1010C4FEA4C0CB0FBFCF011F4DA
:1014B000804F18BF400811F4004F18BF800843F454
:1014C000800313F4800F07D0002AC0F29480C3F386
:1014D000C353591CB0FBF1F030BC70471029A3D1A5
:1014E0004EF20001C4F20F01086810F0E04F00F066
:1014F000B6800C6840F20000C7F2FF0004EA000C5E
:10150000BCF1805F00F0AB800C6840F20000C7F2D5
:10151000FF0040F2000C04EA0000C1F2010C60453B
:1015200000F0A7804EF20000C4F20F00046840F201
:101530000001C7F2FF0140F2000C04EA0101C1F210
:10154000030C614500F0AD8042F20040C0F2F400AF
:1015500076E7002A4FF40040BFF675AF12F4006F33
:101560003FF474AFADE747F2305069E7C1F3481C70
:101570000CF1020C0CFB00F001F01F0C0CF1020C42
:10158000B0FBFCF093E74FF4800059E74EF2000106
:10159000C4F20F01086810F0E04F65D00C6840F20B
:1015A0000000C7F2FF0004EA000CBCF1805F5BD0D2
:1015B0000C6840F20000C7F2FF0040F2000C04EAA1
:1015C0000000C1F2010C60455DD04EF20000C4F293
:1015D0000F00046840F20001C7F2FF0140F2000C66
:1015E00004EA0101C1F2030C614555D040F6001038
:1015F000C0F23D0024E712F0804F09D012F4006FD2
:1016000006D1C2F3865143004A1CB3FBF2F063E7F4
:10161000C2F3C552531CB0FBF3F05DE74EF260110C
:101620004EF26415C4F20F05C4F20F0109682C686C
:10163000C1F3892504F01F0C0CF1010C4FEA4C0C8E
:10164000C4F3042404FB0CCCB0FBFCF005FB00FC51
:101650008905890D4FEA9C2C01FB00C02FE74EF253
:10166000C010C0F2E400EBE643F67000C0F23900AF
:10167000E6E6086881B202297FF454AF41F60030F3
:10168000C0F2B700DCE6086881B202299DD14CF2B5
:10169000C060C0F22D00D3E6016888B20028F6D001
:1016A000A4E7016888B20028E8D04DE740F20113B2
:1016B000C0F20003C26801EA030C42EA0C03C360F3
:1016C000704700BFC368C1F3072C23F4807210B4C5
:1016D00001F0FF0422F0010344F400744CF40072A2
:1016E000090EC36001604460826010BC704700BF97
:1016F00042F22003C0F2000301EA03032AB9C168E1
:101700000C3021EA030303607047C2680C3042EAE0
:1017100003030360704700BF11F0FF0F18BF826220
:1017200011F47F4F18BFC262704700BF83690B433B
:10173000836170474162704730B400F118052C682E
:1017400014F0080FFBD1C46AB1EB021F24F010049F
:10175000C462046B24F4407C2CF001040463046B29
:1017600024BF24F02004046303D244F02004520870
:101770000463C900B1FBF2F20132C2F34501D209A0
:10178000426200228162C3628261C16A41F0100339
:10179000C362026B42F4407141F00103036330BC49
:1017A000704700BF816981F01000C0F300107047DE
:1017B000836913F0100F14BF4FF0FF3000687047BB
:1017C000836913F0200F02D10160012070470020CF
:1017D000704700BF836B0B438363704709B9C06BCD
:1017E0007047006C704700BF4164704753706C6174
:1017F0007368000000E100E004E100E008E100E0BF
:101800000CE100E010E100E0456E74657220746543
:1018100078743A2000000000000000000000004F33
:1018200000000007000700147F147F14242A7F2A79
:101830001223130864623649552250000503000044
:10184000001C2241000041221C0014083E0814081C
:10185000083E08080050300000080808080800602A
:1018600060000020100804023E5149453E00427FBE
:10187000400042615149462141454B311814127FC5
:101880001027454545393C4A49493001710905034E
:101890003649494936064949291E003636000000B6
:1018A0005636000008142241001414141414004188
:1018B0002214080201510906324979413E7E111174
:1018C000117E7F494949363E414141227F414122B3
:1018D0001C7F494949417F090909013E4149497A2B
:1018E0007F0808087F00417F41002040413F017F81
:1018F000081422417F404040407F020C027F7F0459
:1019000008107F3E4141413E7F090909063E415191
:10191000215E7F09192946464949493101017F0164
:10192000013F4040403F1F2040201F3F4038403F84
:1019300063140814630708700807615149454300A0
:101940007F41410002040810200041417F00040251
:101950000102044040404040000102040020545471
:1019600054787F48444438384444442038444448F8
:101970007F3854545418087E0901020C5252523ECA
:101980007F0804047800447D40002040443D007FEF
:101990001028440000417F40007C041804787C0833
:1019A00004047838444444387C141414080814148B
:1019B000187C7C080404084854545420043F4440D4
:1019C000203C4040207C1C2040201C3C4030403CBF
:1019D00044281028440C5050503C4464544C44005B
:1019E0000836410000007F00000041360800020177
:1019F000020402000000000003FD12E302AEE30354
:101A00009400E303A85FE30381B7E303823FE303AA
:101A1000A052E303A100E303A200E302A4E303B1A5
:101A200011E303B223E303B3E2E311B801020304B9
:101A30000506080A0C0E1013161A1EE303BB01E379
:101A400003BC3FE302AFE30040420F0000201C0054
:101A500080841E0000802500999E360000403800DA
:101A600000093D0000803E0000004B00404B4C0050
:101A700000204E00808D5B0000C05D000080700083
:101A800000127A0000007D0080969800001BB700CD
:101A90000080BB00C0E8CE00647ADA000024F400C5
:101AA0000000FA0080A81201002D310100366E01FD
:101AB00040787D0100E10F4004E10F4008E10F4054
:04000003000012E9FE
:00000001FF
