:10000000D4010020711A0000651A0000691A00006E
:100010006D1A00006D1A00006D1A0000000000004B
:100020000000000000000000000000006D1A000049
:100030006D1A0000000000006D1A00006D1A00002B
:100040006D1A00006D1A00006D1A00006D1A000094
:100050006D1A0000990300006D1A00006D1A00006F
:100060006D1A00006D1A00006D1A00006D1A000074
:100070006D1A00006D1A00006D1A00006D1A000064
:100080006D1A0000A10200006D1A00006D1A000038
:100090006D1A0000E50300006D1A00006D1A0000E3
:1000A0006D1A00006D1A00006D1A00006D1A000034
:1000B0006D1A00006D1A00006D1A00006D1A000024
:1000C0006D1A00006D1A00006D1A00006D1A000014
:1000D0006D1A00006D1A00006D1A00006D1A000004
:1000E0006D1A00006D1A00006D1A00006D1A0000F4
:1000F000012838B528D0022801D0002038BD0023BF
:1001000040F2D412C2F200021846191D9C5801F1A7
:10011000040E8D5803F10C0C01195EF802404819C9
:100120005CF80210001910334018B3F5166FECD1CB
:1001300048F2B513C1F64E33A3FB0020800903F04B
:10014000DDF903F08BFC38BD002340F63432C2F2F7
:1001500000021846191D9C5801F1040E8D5803F138
:100160000C0C01195EF8024048195CF802100019E5
:1001700010334018B3F5166FECD148F2B513C1F641
:100180004E33A3FB0020800903F0B8F903F066FCAE
:1001900038BD00BF2DE9F045C900C0EB4070A1EBB0
:1001A000C00A514583B077DD1601C1F16004013604
:1001B00040F274004D1E4FF0010822460E23C2F299
:1001C000000031466FEA0A07CDF8008000F006FE15
:1001D000554507F0030744445EDD67B3012F1BD08C
:1001E000022F0CD040F274002246C2F200003146C9
:1001F0000E23CDF8008000F0F1FD013D013440F206
:1002000074002246C2F2000031460E23CDF8008071
:1002100000F0E4FD013D013440F2740022460E235B
:10022000C2F20000013D3146CDF80080013400F0FB
:10023000D5FD554530DD40F2740022460E23C2F252
:1002400000003146671CCDF8008000F0C7FD40F289
:1002500074000E23C2F2000031463A46CDF8008009
:1002600000F0BCFD40F274007A1C0E23C2F20000C4
:100270003146CDF8008000F0B1FD40F27400E21C80
:100280000E23C2F20000043D3146CDF80080043454
:1002900000F0A4FD5545CEDC03B0BDE8F08500BFFD
:1002A00048F2000008B5C4F20300032100F0E8FAA8
:1002B00040F28003C2F2000301221A7008BD00BFA1
:1002C00010B540F2010040F20004C4F20304C1F290
:1002D000100001F021FC2221204601F0C1FE01F0B6
:1002E00053FD44F6D351C1F26201A1FB0023DA0AA7
:1002F000013AFF21204601F0DDFE01222046FF21C8
:1003000001F0C4FEFF21204601F09EFE41F20004F0
:1003100040F20200C4F20304C1F2100001F0FCFB41
:100320002221204601F09CFE01F02EFDFF21024615
:10033000204601F0BFFE2046012101F0C5FE204607
:10034000FF21BDE8104001F07FBE00BF10B540F2B4
:10035000010048F20004C4F20304C0F2100001F0EE
:10036000DBFB0321204600F097FA204603210522FB
:10037000002300F099FA204603210022602300F0B8
:10038000AFFA2046032100F081FA20460321BDE8A0
:10039000104000F06DBA00BF4CF20000012108B51A
:1003A000C4F2000001F0E4FE01464CF20000C4F289
:1003B000000001F0E3FE0CE04CF20000C4F200008B
:1003C00001F0C4FEC1B24CF20000C4F2000001F022
:1003D000C5FE4CF20000C4F2000001F0B1FE00289E
:1003E000EAD108BD41F2000008B5C4F203000121C2
:1003F00001F06EFE40F27C03C2F2000301221A609B
:1004000008BD00BF2DE9F04F8DB08A46074603F0C6
:1004100075F840F26806C2F20006346840F28805BA
:10042000C2F200058046894605EBC40443F6AC21C0
:1004300052463B46C0F2000105A8C4E9008902F01B
:1004400009FF4CF200009DF81410C4F2000001F006
:1004500085FE4CF200009DF81510C4F2000001F07A
:100460007DFE4CF200009DF81610C4F2000001F071
:1004700075FE4CF200009DF81710C4F2000001F068
:100480006DFE4CF200009DF81810C4F2000001F05F
:1004900065FE4CF200009DF81910C4F2000001F056
:1004A0005DFE4CF200009DF81A10C4F2000001F04D
:1004B00055FE4CF200009DF81B10C4F2000001F044
:1004C0004DFE4CF200009DF81C10C4F2000001F03B
:1004D00045FE4CF200009DF81D10C4F2000001F032
:1004E0003DFE4CF200009DF81E10C4F2000001F029
:1004F00035FE4CF200009DF81F10C4F2000001F020
:100500002DFE4CF200009DF82010C4F2000001F016
:1005100025FE4CF200009DF82110C4F2000001F00D
:100520001DFE4CF200009DF82210C4F2000001F004
:1005300015FE4CF200009DF82310C4F2000001F0FB
:100540000DFE40F200030022C4F228034046494653
:1005500003F074F940F200030022C3F6F07302F0D6
:1005600091FE03F053FA40F2480B3268C2F2000BDE
:100570005BF822100C28A8BF0C200390401A00281A
:1005800040F3B080C90001EBC0008842029040F304
:100590008A8003461001C1F16004CA4300F1010AD8
:1005A00040F20400D71801F108080E232246C2F2D7
:1005B00000004FF008095146CDF8009000F00EFC05
:1005C000029B083C4345C7F3C1076BDD87B3012F8E
:1005D0001DD0022F0DD040F204002246C2F20000CE
:1005E00051460E23CDF8009000F0F8FB08F1080802
:1005F000083C40F204002246C2F2000051460E239D
:10060000CDF8009000F0EAFB08F10808083C40F241
:100610000400224651460E23C2F20000CDF800909D
:1006200000F0DCFB029908F10808083C414539DD7F
:1006300037462E4640F2040022460E23C2F2000046
:100640005146A4F10805CDF8009000F0C7FB40F238
:1006500004000E23C2F2000051462A46CDF8009055
:1006600000F0BCFB40F204000E23C2F20000A5F132
:1006700008025146CDF8009000F0B0FB40F20400B3
:10068000A4F1180251460E23C2F20000CDF80090EA
:1006900000F0A4FB029908F12008203C4145C9DC88
:1006A00035463E463268039B062A4BF8223016DD5B
:1006B00000220023C5E90E23C5E90023C5E9022372
:1006C000C5E90423C5E90623C5E90823C5E90A23CA
:1006D000C5E90C23002030600DB0BDE8F08F013279
:1006E0003260F9E7DFD0FFF755FD3268DBE700BF86
:1006F00040F2803010B5C0F2C04001F03FFA44F241
:100700004020C0F20F0001F087F843F69C20282219
:100710000F231E21C0F2000000F0F8FCFFF7D0FD0F
:10072000FFF714FE40F20100C1F2000001F0F4F9FD
:1007300040F20100C2F2000001F0EEF944F20000C4
:100740000321C4F2000000F021FA01F01DFB014674
:100750004CF200004FF4E1326023C4F2000001F0DB
:10076000B9FC212000F096FA252000F093FA00F061
:10077000CDFA48F20000C4F203000321BDE81040A6
:1007800000F07EB8F8B540F28004C2F2000423788D
:1007900093B940F26D03C2F20003187840B940F2F9
:1007A0006C03C2F200031A780AB118700220F8BD77
:1007B000002018700120F8BD40F20005C2F20005CB
:1007C0002E68012E30D0022E07D040F26D03C2F207
:1007D0000003187800212170E0E740F27007C2F2B0
:1007E0000007396840F2D41EC2F2000E48F2000041
:1007F0000EEB8102C4F20300032100F0B1F83A6865
:10080000531CB3F5167F3B60DFDB40F26D0340F213
:100810006C020121C2F20003C2F200020026187825
:100820003E6011702960D5E740F27007C2F2000700
:100830003A6840F6343CC2F2000C48F20000032152
:100840000CEB8202C4F2030000F08AF83968481CFD
:10085000B0F5167F3860B8DB40F26D030220C2F2BB
:1008600000030021286039601E703046B2E700BFE7
:1008700001238B40C360826813438360704700BFCD
:10088000012212FA01F3C360704700BF01238B40BD
:10089000026813430360704701238B40026822EA19
:1008A00003030360704700BF89004FF00F0C0CFA80
:1008B00001FC02F00F028A4003F0030313FA01F176
:1008C00043696FEA0C0C0CEA030343EA020242613B
:1008D000036A0CEA030C4CEA01010162704700BF95
:1008E0009200F0B40F2717FA02F603F00F059540B7
:1008F000C3F303249440C3F3031C0CFA02FC02313B
:1009000049010F58F64306EA070747EA05050D5067
:1009100009188869304040EA04048C614868304016
:1009200040EA0C0013F4702F486008D1012313FA39
:1009300002F00B6923EA00020A61F0BC7047C3F3BE
:1009400002439340012010FA02F2486900EA0606C9
:100950001E434E610B6943EA02020A61EDE700BFE4
:10096000023100EB4111CB6810B413F4807F36D113
:100970008868134643F8040BC86810F4807F30D1B0
:100980008C68181D5460CA6812F4807F2BD18C6863
:10099000021D5C60CB6813F4807F26D18C68131D28
:1009A0004460C86810F4807F21D18C68181D5460A1
:1009B000CA6812F4807F1CD18A68041D5A60CB6813
:1009C00013F4807F17D18B684360C86810F4807F70
:1009D00013D18A6808206260CB6810BC7047002081
:1009E000FBE70120F9E70220F7E70320F5E7042001
:1009F000F3E70520F1E70620EFE70720EDE700BF6A
:100A0000EFF3108062B6704712F0010F70B4D0F8A7
:100A1000005502BF6FEA010C0CEA050500F5A06461
:100A200004D000F5A0640D436FEA010C256012F0BC
:100A3000020FD0F8046547D0251D0E432E60D0F874
:100A4000086512F0040F08BF0CEA060600F5A16560
:100A500018BF0E432E60D0F8185512F0080F08BFCB
:100A60000CEA050500F5A36218BF0D43156013F0ED
:100A7000010FD0F80C253ED00C340A432260D0F888
:100A8000104513F0020F0CBF0CEA04040C4300F5F0
:100A9000A262146013F0040FD0F8144527D004327A
:100AA0000C4313F0080F146012D0D0F81C3543EA41
:100AB0000101C0F81C15D0F8281500F5A5600CEA56
:100AC0000101016070BC7047251D0CEA0606B5E700
:100AD000D0F81C250CEA0202C0F81C25002BEAD134
:100AE000D0F8283500F5A56043EA0101E9E70432B2
:100AF0000CEA0404D5E70C340CEA0202BEE700BF9E
:100B000040F82120704700BFD0F80024CB4303EA0F
:100B10000202C0F80024D0F820240A43C0F82024A0
:100B2000D0F800250A43C0F80025D0F8042503EAD0
:100B30000202C0F80425D0F8082503EA0202C0F832
:100B40000825D0F8182503EA0202C0F81825D0F8C5
:100B50000C2503EA0202C0F80C25D0F8102503EAA0
:100B60000202C0F81025D0F8142503EA0202C0F8EA
:100B70001425D0F81C2542EA0101C0F81C15D0F854
:100B800028251340C0F82835704700BFD0F800244E
:100B9000CB4303EA0202C0F80024D0F820240A4321
:100BA000C0F82024D0F800250A43C0F80025D0F86A
:100BB000042503EA0202C0F80425D0F8082503EA58
:100BC0000202C0F80825D0F8182503EA0202C0F88E
:100BD0001825D0F80C2503EA0202C0F80C25D0F83D
:100BE000102503EA0202C0F81025D0F8142503EA04
:100BF0000202C0F81425D0F81C2542EA0101C0F811
:100C00001C15D0F828251340C0F82835704700BFC0
:100C1000D0F800350B43C0F80035D0F80425CB439D
:100C200003EA0202C0F80425D0F8082503EA02020C
:100C3000C0F80825D0F8182503EA0202C0F81825E4
:100C4000D0F80C2503EA0202C0F80C25D0F81025D4
:100C500003EA0202C0F81025D0F8142503EA0202C4
:100C6000C0F81425D0F81C250A43C0F81C25D0F87C
:100C7000282503EA0202C0F82825D0F8002442EA19
:100C80000101C0F80014D0F820241340C0F820342B
:100C9000704700BF04281DD0052824D006282BD07B
:100CA0000F280ED00CD9103800F01F0301229A40F3
:100CB00043F6C021C0F20001400951F820301A600B
:100CC00070474EF21000CEF20000016841F00202BF
:100CD000026070474EF62453CEF20003186840F4C9
:100CE00080321A6070474EF62453CEF200031A6821
:100CF00042F40031196070474EF62451CEF20001E3
:100D00000B6843F480200860704700BF08B5FFF708
:100D100077FEC0B208BD00BF08B504200428FDD886
:100D200001A353F820F000BF650D0000550D000031
:100D3000450D00001D0D00003D0D0000FFF7D8FC23
:100D40000020EBE70220FFF7D3F90221FFF75AFB5F
:100D50000020E3E70120FFF7CBF90121FFF752FB69
:100D60000020DBE7FFF70EFDD8E700BFF0B548F243
:100D70000004C4F2000483B00746204600F060FE81
:100D800001F002F844F20005014608260322002380
:100D9000C4F2000520460097019600F023FE284685
:100DA0003146FFF7B1FE314604220A232846FFF7F9
:100DB0002BFE204600F03EFE40F2D003C2F20003BC
:100DC00003F0704223F07F4C42F000712CF470006D
:100DD00041EA40120123136003B0F0BD2DE9F84F42
:100DE00040F2D004C2F20004A1F1020924F07F47CE
:100DF00009EB030A984604F0704C27F4700340F2A4
:100E0000C807C2F20007490815264FEA5A0A5B01D3
:100E10004CF000753E701D43797087F802A0296878
:100E2000914605460A9EF1B14CF0007E4EF0040C4E
:100E30004CEA03021068002840F0138148F20000D9
:100E4000C4F20000397800F001FE48F20000C4F25C
:100E50000000797800F0FAFD48F20000C4F20000CA
:100E6000B97800F0F3FD5FFA89F924F07F4209F1C7
:100E7000FF3122F4700304F0704288195B0142F0E4
:100E800000714FF0750C87F800C0B87087F80190BA
:100E900019430868F0B142F0007C4CF0040E4EEAB1
:100EA00003031868002840F0FC8048F20000C4F2F8
:100EB0000000397800F0CAFD48F20000C4F20000DA
:100EC000797800F0C3FD48F20000C4F20000B97860
:100ED00000F0BCFD24F07F4222F4700304F0704265
:100EE0005B0142F000711943086898B342F0007C3E
:100EF0004CF0040E4EEA03010868E8B148F2000025
:100F0000C4F2000000F0AAFD07460028F6D146F220
:100F10000000C4F2000080213A46FFF7F1FD04F022
:100F2000704343F0007C24F07F414CF0040021F436
:100F3000700240EA42131F6048F20000C4F2000051
:100F4000A02100F083FD48F20000C4F2000052210D
:100F500000F07CFD002E00F0D78024F07F4104F0EB
:100F6000704444F0007721F47002500147F0040A05
:100F700044F000774AEA000A4FEA580407434FF06A
:100F800001083B68002B68D0DAF80000002800F068
:100F9000A880002C61D048F20000C4F2000029783B
:100FA0004FF0010904F1FF3B00F050FD4C450BF000
:100FB000030B52D0BBF1000F25D0BBF1010F16D0AF
:100FC000BBF1020F09D048F2000015F80910C4F275
:100FD000000000F03BFD4FF0020948F2000015F858
:100FE0000910C4F2000000F031FD09F1010948F2D6
:100FF000000015F80910C4F2000009F1010900F021
:1010000025FD4C4529D048F2000015F80910C4F21E
:10101000000000F01BFD09F1010B48F2000015F87B
:101020000B10C4F2000000F011FD0BF1010B48F2AF
:101030000000C4F2000015F80B1000F007FD09F1E4
:10104000030C48F20000C4F2000015F80C1009F17E
:10105000040900F0FBFC4C45D5D1013E54D02D19BC
:101060008FE748F20000C4F2000000F0F7FC82466F
:101070000028F6D146F20000C4F20000802152465A
:10108000FFF73EFD04F0704141F0007C24F07F4208
:101090004CF0040322F4700043EA4011C1F800A0B0
:1010A000CCE648F20000C4F2000000F0D7FC824613
:1010B0000028F6D146F20000C4F20000802152461A
:1010C000FFF71EFD04F0704141F0007324F07F4CE7
:1010D00043F004002CF4700240EA4211C1F800A071
:1010E000E3E648F20000C4F2000000F0B7FC00287C
:1010F000F7D1802146F20000C4F200000A46FFF753
:10110000FFFCCAF8008044E7BDE8F88F2DE9F04FF6
:1011100040F2D005C2F2000525F07F4424F4700CA3
:1011200005F0704B40F2C804C2F200044FEA510AC5
:101130004BF0007815263F274FEA4C1CA7708946D4
:10114000267084F801A048EA0C010E6885B003906F
:1011500017469B46E6B148F0040242EA0C000368D9
:10116000002B40F0928148F20000C4F20000217888
:1011700000F06CFC48F20000C4F20000617800F05E
:1011800065FC48F20000C4F20000A17800F05EFCAB
:1011900025F07F4CF9B22CF4700305F07042C81DA5
:1011A0005B0142F000764FF0750A84F800A0A07051
:1011B00061701E433768F7B142F0007646F0040EC6
:1011C0004EEA03073A68002A40F07E8148F20000A8
:1011D000C4F20000217800F039FC48F20000C4F2AB
:1011E0000000617800F032FC48F20000C4F2000018
:1011F000A17800F02BFC25F07F4020F4700105F071
:1012000070424B0142F000761E433768BFB142F096
:10121000007A4AF0040E4EEA03073B68002B40F0C8
:10122000728148F20000C4F20000A02100F00EFC20
:1012300048F20000C4F20000562100F007FC25F03F
:101240007F4305F0704A23F470024AF0007C570196
:101250004CF0040139434AF00075002002913D43EF
:1012600003990090019502468B5C4FEA0B1640F201
:10127000C80AF7B2C2F2000A0BF00F0B0646002BA9
:1012800000F0008103F07F031F2B98BF4FF0000890
:1012900002D9203B5FFA83F843F6D425C0F200055B
:1012A00008EB8808A844002598F80030267013F051
:1012B00001021EBF3A468AF800203A46032D07D89D
:1012C00098F8011011F0010F1CBF42EA0B022270C6
:1012D00013F0020218BF394666701CBF3A468AF8FE
:1012E0000110032D07D898F8011011F0020F1CBF50
:1012F00042EA0B02627013F0040218BF3A46A6706D
:101300001CBF8AF802203A46032D07D898F801102E
:1013100011F0040F1CBF42EA0B02A27013F0080286
:1013200018BF3946E6701CBF3A468AF80310032DF1
:1013300007D898F8011011F0080F1CBF42EA0B0201
:10134000E27013F0100218BF3A4626711CBF8AF8EB
:1013500004203A46032D07D898F8011011F0100F19
:101360001CBF42EA0B02227113F0200218BF39465B
:1013700066711CBF3A468AF80510032D07D898F805
:1013800001C01CF0200F1CBF42EA0B02627113F077
:10139000400218BF3A46A6711CBF8AF806203A469A
:1013A000032D07D898F8010010F0400F1CBF42EA47
:1013B0000B02A27113F0800318BF3B46E6711CBFFD
:1013C0008AF807303B46032D07D898F8011011F032
:1013D000800F1CBF43EA0B03E37101990B68002BDC
:1013E0003CD002990A68002A00F0AC8048F2000064
:1013F000C4F20000217800F029FB48F20000C4F29A
:101400000000617800F022FB48F20000C4F2000006
:10141000A17800F01BFB48F20000C4F20000E17864
:1014200000F014FB48F20000C4F20000217900F043
:101430000DFB48F20000C4F20000617900F006FBE9
:1014400048F20000C4F20000A17900F0FFFA48F26F
:101450000000C4F20000E17900F0F8FA09F1020995
:10146000B9F1800F0ED00235062D08F102087FF485
:101470001BAF009A511C00910A4603998B5C002B0C
:101480007FF400AF05B0BDE8F08F48F20000C4F271
:10149000000000F0E3FA06460028F6D146F200000C
:1014A000C4F2000080213246FFF72AFB05F07042AB
:1014B00042F0007325F07F4043F0040A20F4700CE2
:1014C0004AEA4C110E604EE648F20000C4F20000F9
:1014D00000F0C4FA06460028F6D146F20000C4F235
:1014E000000080213246FFF70BFB05F0704242F00E
:1014F000007325F07F4C43F004002CF4700A40EA9E
:101500004A110E6062E648F20000C4F2000000F0EA
:10151000A5FA06460028F6D146F20000C4F2000003
:101520008021324605F07047FFF7EAFA47F0007372
:1015300025F07F4043F0040C20F470024CEA421185
:101540000E606EE648F20000C4F2000000F086FA79
:101550000028F7D1802146F20000C4F200000A46BC
:10156000FFF7CEFA0298012303603FE72DE9F84523
:1015700040F2D005C2F2000525F07F4020F4700350
:1015800040F2C80405F07047C2F2000400265B0177
:1015900047F000706660266040EA03021168E1B11E
:1015A00040F0040848EA03063168002940F0CE8084
:1015B00048F20000C4F20000152100F047FA48F29A
:1015C0000000C4F20000002100F040FA48F20000E0
:1015D000C4F200003F2100F039FA25F07F4828F4DA
:1015E000700005F07042430142F000771F433E68EF
:1015F000F6B142F0007A4AF0040E4EEA03031A688C
:10160000002A40F0C28048F20000C4F200007521B8
:1016100000F01CFA48F20000C4F20000002100F0C3
:1016200015FA48F20000C4F200007F2100F00EFA23
:1016300025F07F4A2AF4700305F070425B0142F006
:10164000007119430E68BEB142F0007C4CF0040EEC
:101650004EEA03000768002F40F0B68048F2000011
:10166000C4F20000A02100F0F1F948F20000C4F239
:101670000000522100F0EAF925F07F4805F070469D
:1016800028F4700146F0007C48014CF0040746F055
:101690000075074345EA00064FF000084FF0010AC5
:1016A00000253AE048F20000C4F20000217800F082
:1016B000CDF948F20000C4F20000617800F0C6F9EC
:1016C00048F20000C4F20000A17800F0BFF948F22F
:1016D0000000C4F20000E17800F0B8F948F2000020
:1016E000C4F20000217900F0B1F948F20000C4F220
:1016F0000000617900F0AAF948F20000C4F200008D
:10170000A17900F0A3F948F20000C4F20000E179E9
:1017100000F09CF90135082D75D03268002AF9D007
:101720003B68002BBED148F20000C4F2000000F07C
:1017300095F90028F7D1802146F20000C4F200009C
:101740000A46FFF7DDF9C7F800A0ABE748F2000052
:10175000C4F2000000F082F906460028F6D146F2F5
:101760000000C4F2000080213246FFF7C9F905F0FD
:10177000704141F0007325F07F4043F0040C20F4E9
:1017800070024CEA42173E6012E748F20000C4F2D1
:10179000000000F063F906460028F6D146F200008A
:1017A000C4F2000080213246FFF7AAF905F070422A
:1017B00042F0007825F07F4048F0040C20F47007D8
:1017C0004CEA47110E601EE748F20000C4F2000028
:1017D00000F044F906460028F6D146F200008021C8
:1017E0003246C4F2000005F07047FFF789F925F092
:1017F0007F4A47F0007343F004082AF4700248EA75
:1018000042110E602AE708F10108B8F1600F7FF479
:1018100047AFBDE8F88500BF2DE9F84F044640F218
:101820001000C1F2000000F077F940F20100C2F2AE
:10183000000000F071F940F20400C2F2000000F074
:101840006BF944F20000C4F200002C21FFF75CF9B0
:1018500044F2000004220A23C4F200002C21FFF706
:10186000D3F846F20000C4F20000C021FFF7D0F91F
:1018700046F200000823C4F20000C0210422FFF752
:10188000C3F840F2D006C02146F200000A46C2F278
:101890000006C4F20000FFF733F906F0704726F0A7
:1018A0007F4222F4700147F000704D0140F00408BF
:1018B000012348EA05082046C8F80030FFF756FA29
:1018C000FFF754FE43F6B44647F0007747EA050AAF
:1018D000C0F200060024DAF80030355D002B66D037
:1018E000D8F80000002868D1013D5FD004F101095B
:1018F00048F2000005F1FF3B16F80910C4F20000A1
:1019000000F0A4F8B1440BF0030301275D46BBF1DE
:10191000000F4BD013B3012B15D0022B09D048F286
:10192000000019F80710C4F2000000F08FF8013D24
:10193000022748F2000019F80710C4F2000000F076
:1019400085F8013D013748F2000019F80710C4F28C
:10195000000000F07BF80137013D27D048F200007D
:1019600019F80710C4F2000000F070F807F1010B3D
:1019700048F2000019F80B10C4F2000000F066F8FD
:101980000BF1010B48F20000C4F2000019F80B1033
:1019900000F05CF8FA1C48F20000C4F2000019F8EC
:1019A000021000F053F80437043DD7D1355D0135FE
:1019B00064194E2C8FD9BDE8F88F48F20000C4F2AC
:1019C000000000F04BF807460028F6D146F2000070
:1019D000C4F2000080213A46FFF792F8C8F8007080
:1019E00082E700BF022B1CD0FBB94360009BB1FB18
:1019F000F3F100230233B1FBF3FC0CF1FF3CBCF12B
:101A0000FF0FF7D8910101F0FF0102F0300241EA27
:101A100002020199036101390A4342EA0C22026081
:101A20007047082343F00403DFE7002343F0040377
:101A3000DBE700BF416841F002034360704700BF2D
:101A4000416821F002034360704700BF00F10C02BF
:101A5000136813F0020FFBD081607047C068C0F3B9
:101A600000107047FEE700BFFEE700BFFEE700BFC3
:101A700040F2000240F24400C2F20002C2F2000052
:101A800082422DE9F00536D243F69851C0F20001AA
:101A90000B681446D54344F8043B2D1804238442B4
:101AA000C5F3810527D285B1012D07D0022D02D0C3
:101AB0004D68082325605C589C5004335C589C504A
:101AC000043303EB020C844515D25E5803F1040C79
:101AD0009E5003F10C040CF1040510335CF801A0D6
:101AE00055F8018067589E1886424CF802A045F8C8
:101AF0000280A750E9D3064806494FF00002884209
:101B0000B8BF40F8042BFADBBDE8F005FFF704B9D5
:101B1000480000209414002000F07043B3F1704F8F
:101B20000ED0C0F3044182B28A4043F67053C0F233
:101B30000003000F53F8203019680A431A607047F9
:101B40004EF2006300F0FF02C4F20F03C0F307205F
:101B5000C318910041F0007023F07F4203F07043FE
:101B600040EA030C22F470014CEA4112012010609B
:101B7000704700BF0138FDD1704700BF4EF200032F
:101B8000C4F20F031A682DE9F04112F0E04F044649
:101B900000F0F480196840F20000C7F2FF0001EA8B
:101BA0000003B3F1805F00F0E9804EF26002C4F2FE
:101BB0000F024EF270031568C4F20F031E6845F45D
:101BC000006746F4006627F4800517F0020F1560E1
:101BD0001E6000F0A78014F0020F40F0A3806FEAAF
:101BE00084786FEA98714EF260000D40C4F20F00E5
:101BF000002E0560C0F2AB8005F03003302B00F002
:101C0000B8804FF40020FFF7B5FF40F23007C8F26C
:101C1000000726F0004020F0700604EA0702324375
:101C200025F4FE6104F4FE6C04F0080E4EF2600729
:101C30004EF2700641EA0C0842EACE05C4F20F07E4
:101C4000C4F20F06C7F8008010203560FFF792FF3E
:101C50004EF25803402028F44058C4F20F0304F415
:101C6000405104F4005225F4005C5CEA020518605F
:101C700048EA010340F203004CBF35603B60C0F20C
:101C8000C07058BF356023F0F86825F0FC5504F0AB
:101C9000FC5248BF3B6028F00308154304EA0001EA
:101CA00014F0804F48EA010008BF25F080450AD0B3
:101CB00040F2000EC4F2400E25F4800504EA0E0343
:101CC0001D4340F4800014F400641CD14EF2500314
:101CD000C4F20F030EE0196811F0400F0FD119681C
:101CE00011F0400F0BD11A6812F0400F07D1B4F574
:101CF000004F04D01A68043412F0400FEBD020F4E7
:101D0000006025F400654EF26002C4F20F024EF24C
:101D100070031060C4F20F0310201D60BDE8F04195
:101D2000FFF728BF15F0010F3FF46FAF14F0010F5C
:101D30007FF46BAF6FEA84786FEA98714EF26000BF
:101D40000D40C4F20F00002E0560BFF655AF06F03F
:101D5000700CBCF1300F14BF4FF0000E4FF0010EAD
:101D6000BCF1700F14BF77464EF00107002F3FF40F
:101D700048AF4FF48050FFF7FDFE46E7002CBFF65A
:101D800014AFBDE8F08100BF4EF260034EF2700266
:101D9000C4F20F03C4F20F021B68126830B4002AA9
:101DA000B4BF02F0700103F03001202900F0BC80C4
:101DB0000AD9602900F0B580702900F09880302998
:101DC00000F09F80002055E0002955D143F60451D2
:101DD000C0F20001C3F3841051F82000002AC0F2C1
:101DE0008B8013F4006F3AD14EF20004C4F20F045A
:101DF000256840F20001C7F2FF0140F2000C05EA3D
:101E00000101C1F2050C614500F0D6804EF2640577
:101E1000C4F20F052968256815F0E04F74D02468D6
:101E200040F2000CC7F2FF0C04EA0C0CBCF1805F1E
:101E30006AD0C1F3481C0CFB00F001F01F0C0CF140
:101E4000010C4FEA4C0CB0FBFCF011F4804F18BFB2
:101E5000400811F4004F18BF800843F4800313F4C6
:101E6000800F07D0002AC0F29480C3F3C353591CDB
:101E7000B0FBF1F030BC70471029A3D14EF2000145
:101E8000C4F20F01086810F0E04F00F0B6800C6853
:101E900040F20000C7F2FF0004EA000CBCF1805FD2
:101EA00000F0AB800C6840F20000C7F2FF0040F287
:101EB000000C04EA0000C1F2010C604500F0A780AC
:101EC0004EF20000C4F20F00046840F20001C7F2B5
:101ED000FF0140F2000C04EA0101C1F2030C61456C
:101EE00000F0AD8042F20040C0F2F40076E7002A34
:101EF0004FF40040BFF675AF12F4006F3FF474AFBB
:101F0000ADE747F2305069E7C1F3481C0CF1020C11
:101F10000CFB00F001F01F0C0CF1020CB0FBFCF00C
:101F200093E74FF4800059E74EF20001C4F20F012D
:101F3000086810F0E04F65D00C6840F20000C7F26E
:101F4000FF0004EA000CBCF1805F5BD00C6840F23B
:101F50000000C7F2FF0040F2000C04EA0000C1F2EA
:101F6000010C60455DD04EF20000C4F20F00046821
:101F700040F20001C7F2FF0140F2000C04EA010147
:101F8000C1F2030C614555D040F60010C0F23D008F
:101F900024E712F0804F09D012F4006F06D1C2F38B
:101FA000865143004A1CB3FBF2F063E7C2F3C5520B
:101FB000531CB0FBF3F05DE74EF260114EF2641576
:101FC000C4F20F05C4F20F0109682C68C1F389251A
:101FD00004F01F0C0CF1010C4FEA4C0CC4F3042468
:101FE00004FB0CCCB0FBFCF005FB00FC8905890D63
:101FF0004FEA9C2C01FB00C02FE74EF2C010C0F24C
:10200000E400EBE643F67000C0F23900E6E608684B
:1020100081B202297FF454AF41F60030C0F2B7001C
:10202000DCE6086881B202299DD14CF2C060C0F2A2
:102030002D00D3E6016888B20028F6D0A4E7016835
:1020400088B20028E8D04DE740F20113C0F2000347
:10205000C26801EA030C42EA0C03C360704700BF88
:10206000C368C1F3072C23F4807210B401F0FF049D
:1020700022F0010344F400744CF40072090EC360B2
:1020800001604460826010BC704700BF42F22003D0
:10209000C0F2000301EA03032AB9C1680C3021EA47
:1020A000030303607047C2680C3042EA0303036015
:1020B000704700BF11F0FF0F18BF826211F47F4F0D
:1020C00018BFC262704700BF83690B4383617047CA
:1020D0004162704730B400F118052C6814F0080F05
:1020E000FBD1C46AB1EB021F24F01004C462046B7C
:1020F00024F4407C2CF001040463046B24BF24F01E
:102100002004046303D244F0200452080463C9008D
:10211000B1FBF2F20132C2F34501D2094262002260
:102120008162C3628261C16A41F01003C362026BC3
:1021300042F4407141F00103036330BC704700BFBB
:10214000816981F01000C0F300107047836913F0BB
:10215000100F14BF4FF0FF3000687047836913F011
:10216000200F02D10160012070470020704700BF9E
:1021700009B9C06B7047006C704700BF416470477D
:102180002DE9F00F88B0059316460B4601B14B1EA2
:1021900043F67C520021C0F20002069204910A46E6
:1021A00037789B46002F00F03081B7F1250318BF28
:1021B0000123002B00F02F820023013316F8038047
:1021C0009D194FFA88F1B1F1250418BF01240029A7
:1021D0000CBF002404F00104002CEED19B45A44662
:1021E00080F019815C46BBF1000F00F0FF800BF11D
:1021F000FF3818F0030A614616D001210770775C9A
:1022000044468C46002F2FD08A450DD0BAF1020FDC
:1022100004D047540221775C013C2FB3475401316D
:10222000775C013C8C46FFB1013C00F80C70013139
:10223000A446002C00F0D680775C8846A7B14754AE
:102240000131775C013C7FB1475408F10201775CB2
:10225000ACF1020447B1475408F10301775CACF1DB
:1022600003048C46002FDFD147187E4206F0030698
:10227000A64228BF26460294002E40D04FF0010C03
:1022800006F1FF38013C6645425408F003086144FA
:1022900031D9B8F1000F19D0B8F1010F0ED0B8F153
:1022A000020F05D007F80C200131013C4FF0020C61
:1022B00007F80C200131013C0CF1010C07F80C204F
:1022C0000CF1010C0131013C664514D9994607F81F
:1022D0000C200CF101030CF103080CF1040C03F1C8
:1022E000010A0431043C6645FA5407F80A2007F84D
:1022F0000820ECD84B46DDF808C0B44572D0DDF8B4
:102300000890C6EB09094FEA99084FEA880ACDF808
:102310000C90CDF808A0B8F1000F37D04FF0010CA9
:10232000BE1908F1FF37C445326007F0030725D214
:1023300087B1012F08D0022F1CBF4FF0020C726032
:1023400046F82C200CF1010C46F82C200CF1010C65
:10235000C44513D2994646F82C200CF101030CF128
:1023600003070CF1040C03F1010AC44546F82320CD
:1023700046F82A2046F82720EDD34B46DDF80880A2
:10238000039E41444645C8EB04042BD04FF0010C9A
:10239000671E42544118A44507F0030622D08EB1AF
:1023A000012E09D0022E1CBF01F80C204FF0020CA8
:1023B00001F80C200CF1010C01F80C200CF1010CBF
:1023C000A4450FD001F80C200CF101060CF1030715
:1023D0000CF1040C06F10108A4458A5501F8082007
:1023E000CA55EFD195F800804FFA88F1049E584401
:1023F0009F1925294FF0000B049700F01A815FFA0E
:1024000088F72E46002F7FF4D0AE0770049808B0EE
:10241000BDE8F00F70471C46002B00F0FB8003F175
:10242000FF3818F0030A614616D001210770775C67
:1024300044468C46002F2FD08A450DD0BAF1020FAA
:1024400004D047540221775C013C2FB3475401313B
:10245000775C013C8C46FFB1013C00F80C70013107
:10246000A446002C00F0D680775C8846A7B147547C
:102470000131775C013C7FB1475408F10201775C80
:10248000ACF1020447B1475408F10301775CACF1A9
:1024900003048C46002FDFD147187E4206F0030666
:1024A000A64228BF26460294002E40D04FF0010CD1
:1024B00006F1FF38013C6645425408F003086144C8
:1024C00031D9B8F1000F19D0B8F1010F0ED0B8F121
:1024D000020F05D007F80C200131013C4FF0020C2F
:1024E00007F80C200131013C0CF1010C07F80C201D
:1024F0000CF1010C0131013C664514D9994607F8ED
:102500000C200CF101030CF103080CF1040C03F195
:10251000010A0431043C6645FA5407F80A2007F81A
:102520000820ECD84B46DDF808C0B44572D0DDF881
:1025300008A0C6EB0A094FEA99084FEA880ACDF8C5
:102540000C90CDF808A0B8F1000F37D04FF0010C77
:10255000BE1908F1FF37C445326007F0030725D2E2
:1025600087B1012F08D0022F1CBF4FF0020C726000
:1025700046F82C200CF1010C46F82C200CF1010C33
:10258000C44513D2994646F82C200CF101030CF1F6
:1025900003070CF1040C03F1010AC44546F823209B
:1025A00046F82A2046F82720EDD34B46DDF8088070
:1025B000039E41444645C8EB04042BD04FF0010C68
:1025C000671E42544118A44507F0030622D08EB17D
:1025D000012E09D0022E1CBF01F80C204FF0020C76
:1025E00001F80C200CF1010C01F80C200CF1010C8D
:1025F000A4450FD001F80C200CF101060CF10307E3
:102600000CF1040C06F10108A4458A5501F80820D4
:10261000CA55EFD12E4696F800803546049E4FFAF3
:1026200088F19F19C0182529C3EB0B0B04977FF481
:10263000E6AE5C4602355B464FF02008002715F9F0
:1026400001CC2E46ACF1250BBBF1530F00F2858275
:10265000DFE81BF07202830283028302830283029B
:10266000830283028302830283025C025C025C02B7
:102670005C025C025C025C025C025C025C02830243
:102680008302830283028302830283028302830222
:102690008302830283028302830283028302830212
:1026A0008302830283028302830283028302830202
:1026B0008302830283028302830254028302830221
:1026C00083028302830283028302830283028302E2
:1026D0004102350283028302830283028302830262
:1026E00083028302830283028302540283028302F1
:1026F000F30083025400830283025402059B1D6889
:1027000003F104094FF0000B0A218D4238BF4FF04E
:10271000010C0DD38C46A24604E0B3FBF1F46445F2
:1027200005D19C4601FB0CF3013F9D42F5D2544676
:10273000BBF1000F00F02B82002C0CBF00230BF02C
:102740000103013F002B00F022824FFA88F3302B67
:102750001CBF23464FF0010B00F06185A7F1020A70
:102760004FF6FD74A24539D8013F37D07C1E04F0E6
:102770000304029413B100F8018B013B7C1E28D0A6
:10278000029F9FB1012F0BD0022F04D013B100F88C
:10279000018B013B013C13B100F8018B013B013C73
:1027A00013B100F8018B013B013C12D013B100F8CA
:1027B000018B013B013C13B100F8018B013B13B1CC
:1027C00000F8018B013B13B100F8018B013B033C86
:1027D000ECD1049F7C1CA244CDF810A0002B0CBFB0
:1027E00000240BF001044CB12D2400F8014BDDF85E
:1027F0001080013B08F10108CDF81080BCF1000FFA
:1028000018D06446DDF81880DDF810C053B1B5FB70
:10281000F4FBBBFBF1FA01FB1AB717F808B0013B58
:1028200000F801BBB4FBF1F40CF1010C002CEDD16C
:10283000CDF810C0CDF81490B2E4059DD5F800C0D5
:102840009CF80080B8F1000F00F0F4840021013101
:102850001CF90130002BFAD18F4203D9049D7B195A
:102860005D1A04958C4280F0A0822546002C00F071
:102870001781B8F1000F00F0EA8404F1FF3A002359
:102880001AF003091F4621D0012380F800801CF8AC
:10289000038055461F46B8F1000F3CD0994515D02E
:1028A000B9F1020F08D000F80380DB181CF8038090
:1028B000013DB8F1000F2ED000F8038001331CF861
:1028C0000380013D1F46B8F1000F24D0013D0133C4
:1028D00000F80780AA46002D00F0E2801CF8037083
:1028E0009846C7B1C75401331CF80370013D97B136
:1028F000C75408F102031CF80370AAF1020557B18E
:10290000C75408F103031CF80380AAF103051F460E
:10291000B8F1000FDAD100EB030CCCF1000B0BF097
:102920000307AF4228BF2F46AB46002F42D04FF0DF
:10293000010807F1FF3A0133013D47450CF8022039
:102940000AF0030A34D9BAF1000F19D0BAF1010F15
:102950000ED0BAF1020F05D00CF808200133013D6A
:102960004FF002080CF808200133013D08F101087E
:102970000CF8082008F101080133013D474517D93B
:1029800008F1010909F1010A0CF80820CDF808A0A6
:102990000CF8092008F1030ADDF8089008F1040892
:1029A0000433043D47450CF809200CF80A20E7D809
:1029B000BB4575D0C7EB0B0B4FEA9B08CDF808B0B1
:1029C0004FEA8809B8F1000F3CD067444FF0010C82
:1029D00008F1FF3AC4453A600AF0030A2BD2BAF173
:1029E000000F12D0BAF1010F09D0BAF1020F1CBFCB
:1029F0004FF0020C7A6047F82C200CF1010C47F8DC
:102A00002C200CF1010CC44515D20CF1010B0BF17B
:102A1000010A47F82C20CDF80CA047F82B200CF128
:102A2000030ADDF80CB00CF1040CC44547F82B2068
:102A300047F82A20E9D3DDF808C04B44CC45C9EB60
:102A400005052DD04FF0010CC3186F1EAC459A54EC
:102A500007F0030724D08FB1012F09D0022F1CBF2C
:102A600003F80C204FF0020C03F80C200CF1010CC1
:102A700003F80C200CF1010CAC4511D003F80C202C
:102A80000CF101090CF103080CF1040C09F1010A25
:102A9000AC4503F8092003F80A2003F80820EDD11B
:102AA00000190023DDF810C00CEB01090599CDF8E1
:102AB000109001F10409CDF81490FFF771BB059B4C
:102AC0001D6803F10409002DBFF61CAE6D424FF0E6
:102AD000010B0A2119E6059D296814B100F8011BB4
:102AE000631E059FDDF8108007F1040908F1010855
:102AF000CDF81080CDF81490FFF752BB05994FF038
:102B0000000B0D6801F104091021FEE5BCF1300F46
:102B100014BF00210121002F14BF002101F0010189
:102B200007EB8709ACF1300C002918BF4FF03008D3
:102B30000CEB4907013582E51CB1252100F8011B8A
:102B4000631EDDF810C00CF10109CDF81090DDF81E
:102B50001490CDF81490FFF723BB042C19D95223FD
:102B60004F274FF0450A037143708370C77080F898
:102B700000A0631F0530DDF810C0DDF814900CF1E3
:102B8000050ACDF810A0CDF81490FFF709BB234635
:102B9000E4E52146002C00F0058104F1FF3C002310
:102BA00043F6905745251CF0030AC0F200079846EB
:102BB00019D0057017F8015F012361469846002D72
:102BC0003BD09A450FD0BAF1020F05D0C55417F883
:102BD000015F0139DB1885B3C55417F8015F013374
:102BE000013998464DB3844601390CF808503846EF
:102BF00001338846002900F0228310F8015F9A46CD
:102C0000D5B10CF8035010F8015F013301399DB1C3
:102C10000CF803504078FD1C0AF102030437A8F1B8
:102C2000020148B10CF803006D780AF10303A8F122
:102C300003019846002DD7D16046C518C5F1000B99
:102C40000BF0030A8A4528BF8A468946BAF1000F6D
:102C500038D00AF1FF3C0CF003074FF0010C0133B0
:102C60000139E245AA542BD9BFB1012F0DD0022F53
:102C700005D005F80C20013301394FF0020C05F89E
:102C80000C20013301390CF1010C05F80C200CF17A
:102C9000010C01330139E24512D905F80C200CF181
:102CA00001070CF103080CF1040C07F1010B0433CC
:102CB0000439E245EA5505F80B2005F80820ECD860
:102CC000D1456FD0CAEB090B4FEA9B074FEA870843
:102CD000002F3AD04FF0010C554407F1FF39BC45A5
:102CE0002A6009F0030A2BD2BAF1000F12D0BAF110
:102CF000010F09D0BAF1020F1CBF4FF0020C6A603D
:102D000045F82C200CF1010C45F82C200CF1010C9D
:102D1000BC4515D20CF1010909F1010A45F82C2036
:102D2000CDF808A045F829200CF1030ADDF8089039
:102D30000CF1040CBC4545F8292045F82A20E9D3BC
:102D4000C3454344C8EB01012CD04FF0010CC3181C
:102D50004D1E8C459A5405F0030523D08DB1012DED
:102D600009D0022D1CBF03F80C204FF0020C03F811
:102D70000C200CF1010C03F80C200CF1010C8C451B
:102D800010D003F80C200CF101050CF1030B0CF131
:102D9000040C05F101088C455A5503F8082003F886
:102DA0000B20EED100190023E5E60D46002900F0C6
:102DB0002D81B8F1000F00F0488201F1FF390023A6
:102DC00019F0030B9A4621D0012380F800801CF8EB
:102DD00003804D469A46B8F1000F3ED09B4515D072
:102DE000BBF1020F08D000F80380DB181CF8038049
:102DF000013DB8F1000F30D000F8038001331CF81A
:102E00000380013D9A46B8F1000F26D08946013D66
:102E100000F80A800133AA46002D00F00E821CF84B
:102E200003109846C1B1C15401331CF80310013D91
:102E300091B1C15408F102031CF80310AAF1020574
:102E400051B1C15408F103031CF80380AAF1030532
:102E50009A46B8F1000FDAD1494600EB0308C8F1F1
:102E6000000B0BF00309A94528BFA9460295B9F14B
:102E7000000F45D04FF0010C09F1FF3A0133013D3D
:102E8000E14508F802200AF0030A34D9BAF1000F2C
:102E900019D0BAF1010F0ED0BAF1020F05D008F81F
:102EA0000C200133013D4FF0020C08F80C200133D7
:102EB000013D0CF1010C08F80C200CF1010C013360
:102EC000013DE14517D90CF1010B0BF1010A08F89E
:102ED0000C20CDF80CA008F80B200CF1030ADDF84B
:102EE0000CB00CF1040C0433043DE14508F80B2050
:102EF00008F80A20E7D8DDF808C0CC4500F0868045
:102F0000DDF808B0C9EB0B0A4FEA9A0B4FEA8B0CBD
:102F1000CDF80CA0CDF808C0BBF1000F43D04FF0A6
:102F2000010CC844DC450BF1FF39C8F8002009F05A
:102F3000030A2FD2BAF1000F13D0BAF1010F0AD051
:102F4000BAF1020F1CBF4FF0020CC8F8042048F879
:102F50002C200CF1010C48F82C200CF1010CDC4564
:102F600018D29A4643460CF1010909F1010843F8C9
:102F70002C20CDF81C8043F829200CF10308DDF843
:102F80001C900CF1040CDC4543F8292043F8282060
:102F9000E9D35346DDF808A0DDF80CC05344D4450E
:102FA000CAEB050532D04FF0010CC31805F1FF3B09
:102FB000AC459A540BF0030828D0B8F1000F13D099
:102FC000B8F1010F0AD0B8F1020F1CBF03F80C20B2
:102FD0004FF0020C03F80C200CF1010C03F80C204C
:102FE0000CF1010CAC4511D003F80C200CF10108D8
:102FF0000CF1030A0CF1040C08F10109AC4503F8CB
:10300000082003F8092003F80A20EDD14018631ABC
:103010008F427FF647AD7F1A9F4234BFB94699462B
:10302000C9F10003B9F1000F3FF43CAD454205F092
:10303000030709F1FF344F4528BF4F460794002F7F
:1030400000F001814FF02008044604F8018B079D31
:103050004FF0010C013D07F1FF3A67450AF0030A02
:1030600007953CD9BAF1000F1FD0BAF1010F12D069
:10307000BAF1020F07D000F80C80079D0134013D22
:1030800007954FF0020C00F80C80079D0134013DBC
:1030900007950CF1010C00F80C80079D0CF1010C58
:1030A000013D01346745079519D9079D0CF1010BC6
:1030B0000BF1010A00F80C80CDF808A000F80B8095
:1030C0000CF1030ADDF808B00CF1040C0434043DE3
:1030D000674500F80B8000F80A80E7D80795B945E6
:1030E00000F09B80C7EB09084FEA980ACDF80880EA
:1030F0004FEA8A0BBAF1000F56D04FF0010CC719F6
:103100000AF1FF384FF02035D445039708F0030843
:103110003D6041D2B8F1000F1CD0B8F1010F10D0C2
:10312000B8F1020F1EBF039F4FF020357D60039F53
:1031300018BF4FF0020C4FF0203547F82C500CF11F
:10314000010C039F4FF0203547F82C500CF1010C77
:10315000D44521D2079D039FA04600930CF10103A3
:103160004FF02034039347F82C405C1C07940CF17B
:103170000303039C01934FF0203347F82430079C4E
:103180000CF1040C47F82430019CD44547F8243056
:10319000E4D3009B44460795079D029FCBEB0505B2
:1031A0005F455C44079538D020272770079D4FF076
:1031B000010C05F0030805EB0C0A75B3B8F1000F1C
:1031C00015D0B8F1010F0BD0B8F1020F1EBFB846F1
:1031D00004F80C804FF0020C04F80C700CF1010C98
:1031E00004F80C700CF1010CE2453D4615D00CF1D1
:1031F00001050CF1030805F1010B04F80C70CDF882
:103200000880675504F80B700CF1040CDDF808B069
:10321000E245B84604F80B70E9D1484442E42D2356
:1032200000F8013B631E049C4FF0000B0134049432
:10323000FFF794BA4146FFF70FBB4946E6E6604602
:103240000019002397E404464CE7434605E643464D
:10325000FFF761BB0EB410B583B005AC54F8042B76
:103260004FF6FF7123460194FEF78AFF03B0BDE8D5
:10327000104003B0704700BF81F0004102E000BF82
:1032800083F0004330B54FEA41044FEA430594EA26
:10329000050F08BF90EA020F1FBF54EA000C55EA61
:1032A000020C7FEA645C7FEA655C00F0E2804FEA32
:1032B0005454D4EB5555B8BF6D420CDD2C4480EA14
:1032C000020281EA030382EA000083EA010180EA44
:1032D000020281EA0303362D88BF30BD11F0004F92
:1032E0004FEA01314FF4801C4CEA113102D04042C8
:1032F00061EB410113F0004F4FEA03334CEA133303
:1033000002D0524263EB430394EA050F00F0A7801A
:10331000A4F10104D5F1200E0DDB02FA0EFC22FA15
:1033200005F2801841F1000103FA0EF2801843FA09
:1033300005F359410EE0A5F120050EF1200E012AFA
:1033400003FA0EFC28BF4CF0020C43FA05F3C01838
:1033500051EBE37101F0004507D54FF0000EDCF1B1
:10336000000C7EEB00006EEB0101B1F5801F1BD35A
:10337000B1F5001F0CD349085FEA30004FEA3C0C5E
:1033800004F101044FEA445212F5800F80F09A8054
:10339000BCF1004F08BF5FEA500C50F1000041EB58
:1033A000045141EA050130BD5FEA4C0C404141EB5C
:1033B000010111F4801FA4F10104E9D191F0000F83
:1033C00004BF01460020B1FA81F308BF2033A3F106
:1033D0000B03B3F120020CDA0C3208DD02F1140CFD
:1033E000C2F10C0201FA0CF021FA02F10CE002F138
:1033F0001402D8BFC2F1200C01FA02F120FA0CFC31
:10340000DCBF41EA0C019040E41AA2BF01EB045179
:10341000294330BD6FEA04041F3C1CDA0C340EDC77
:1034200004F11404C4F1200220FA04F001FA02F3BA
:1034300040EA030021FA04F345EA030130BDC4F178
:103440000C04C4F1200220FA02F001FA04F340EA6D
:103450000300294630BD21FA04F0294630BD94F01E
:10346000000F83F4801306BF81F480110134013D05
:103470004EE77FEA645C18BF7FEA655C29D094EA76
:10348000050F08BF90EA020F05D054EA000C04BFF4
:103490001946104630BD91EA030F1EBF00210020DF
:1034A00030BD5FEA545C05D14000494128BF41F07E
:1034B000004130BD14F580043CBF01F5801130BDE2
:1034C00001F0004545F0FE4141F470014FF000006D
:1034D00030BD7FEA645C1ABF194610467FEA655C1E
:1034E0001CBF0B46024650EA013406BF52EA0335C0
:1034F00091EA030F41F4002130BD00BF90F0000FAE
:1035000004BF0021704730B54FF4806404F13204E9
:103510004FF000054FF0000150E700BF90F0000FA2
:1035200004BF0021704730B54FF4806404F13204C9
:1035300010F0004548BF40424FF000013EE700BF99
:1035400042004FEAE2014FEA31014FEA02701FBF29
:1035500012F07F4393F07F4F81F06051704792F0FB
:10356000000F14BF93F07F4F704730B54FF4607475
:1035700001F0004521F0004120E700BF50EA0102C0
:1035800008BF704730B54FF000050AE050EA01026D
:1035900008BF704730B511F0004502D5404261EBDD
:1035A00041014FF4806404F132045FEA915C3FF41E
:1035B000DCAE4FF003025FEADC0C18BF03325FEAB7
:1035C000DC0C18BF033202EBDC02C2F1200300FA6C
:1035D00003FC20FA02F001FA03FE40EA0E0021FA91
:1035E00002F11444C1E600BF70B54FF0FF0C4CF47B
:1035F000E06C1CEA11541DBF1CEA135594EA0C0F31
:1036000095EA0C0F00F0DEF82C4481EA030621EA6B
:103610004C5123EA4C5350EA013518BF52EA0335A6
:1036200041F4801143F4801338D0A0FB02CE4FF058
:103630000005E1FB02E506F00042E0FB03E54FF088
:103640000006E1FB03569CF0000F18BF4EF0010E80
:10365000A4F1FF04B6F5007F64F5407404D25FEA7C
:103660004E0E6D4146EB060642EAC62141EA55512F
:103670004FEAC52040EA5E504FEACE2EB4F1FD0C71
:1036800088BFBCF5E06F1ED8BEF1004F08BF5FEAEF
:10369000500E50F1000041EB045170BD06F00046A1
:1036A00046EA010140EA020081EA0301B4EB5C044E
:1036B000C2BFD4EB0C0541EA045170BD41F4801146
:1036C0004FF0000E013C00F3AB8014F1360FDEBF6B
:1036D000002001F0004170BDC4F10004203C35DA47
:1036E0000C341BDC04F11404C4F1200500FA05F3CA
:1036F00020FA04F001FA05F240EA020001F000426B
:1037000021F0004110EBD37021FA04F642EB0601E0
:103710005EEA430E08BF20EAD37070BDC4F10C040A
:10372000C4F1200500FA04F320FA05F001FA04F2CE
:1037300040EA020001F0004110EBD37041F10001BA
:103740005EEA430E08BF20EAD37070BDC4F12005C5
:1037500000FA05F24EEA020E20FA04F301FA05F22D
:1037600043EA020321FA04F001F0004121FA04F2D5
:1037700020EA020000EBD3705EEA430E08BF20EAA5
:10378000D37070BD94F0000F0FD101F000464000DF
:1037900041EB010111F4801F08BF013CF7D041EA61
:1037A000060195F0000F18BF704703F00046520065
:1037B00043EB030313F4801F08BF013DF7D043EA36
:1037C0000603704794EA0C0F0CEA135518BF95EAEC
:1037D0000C0F0CD050EA410618BF52EA4306D1D173
:1037E00081EA030101F000414FF0000070BD50EA92
:1037F000410606BF1046194652EA430619D094EA1C
:103800000C0F02D150EA013613D195EA0C0F05D105
:1038100052EA03361CBF104619460AD181EA030159
:1038200001F0004141F0FE4141F470014FF0000011
:1038300070BD41F0FE4141F4780170BD70B54FF0AC
:10384000FF0C4CF4E06C1CEA11541DBF1CEA13552C
:1038500094EA0C0F95EA0C0F00F0A7F8A4EB05040E
:1038600081EA030E52EA03354FEA013100F0888005
:103870004FEA03334FF0805545EA131343EA1263CE
:103880004FEA022245EA111545EA10654FEA002683
:103890000EF000419D4208BF964244F1FD0404F53C
:1038A000407402D25B084FEA3202B61A65EB030598
:1038B0005B084FEA32024FF480104FF4002CB6EB55
:1038C000020E75EB030E22BFB61A754640EA0C00D5
:1038D0005B084FEA3202B6EB020E75EB030E22BF15
:1038E000B61A754640EA5C005B084FEA3202B6EB56
:1038F000020E75EB030E22BFB61A754640EA9C0015
:103900005B084FEA3202B6EB020E75EB030E22BFE4
:10391000B61A754640EADC0055EA060E18D04FEAA2
:10392000051545EA16754FEA06164FEAC30343EA42
:1039300052734FEAC2025FEA1C1CC0D111F4801F0F
:103940000BD141EA00014FF000004FF0004CB6E708
:1039500011F4801F04BF01430020B4F1FD0C88BFA7
:10396000BCF5E06F3FF6AFAEB5EB030C04BFB6EBB2
:10397000020C5FEA500C50F1000041EB045170BDA5
:103980000EF0004E4EEA113114EB5C04C2BFD4EBD2
:103990000C0541EA045170BD41F480114FF0000E56
:1039A000013C90E645EA060E8DE60CEA135594EAD2
:1039B0000C0F08BF95EA0C0F3FF43BAF94EA0C0FD5
:1039C0000AD150EA01347FF434AF95EA0C0F7FF44A
:1039D00025AF104619462CE795EA0C0F06D152EA9E
:1039E00003353FF4FDAE1046194622E750EA410682
:1039F00018BF52EA43067FF4C5AE50EA41047FF493
:103A00000DAF52EA43057FF4EBAE12E74FEA4102F5
:103A100012F5001215D211D56FF47873B3EB625220
:103A200012D94FEAC12343F0004343EA505311F047
:103A3000004F23FA02F018BF404270474FF00000D9
:103A4000704750EA013005D111F0004008BF6FF017
:103A5000004070474FF00000704700BF4A0011D28D
:103A600012F5001211D20DD56FF47873B3EB6252D8
:103A70000ED44FEAC12343F0004343EA505323FAE4
:103A800002F070474FF00000704750EA013002D159
:103A90004FF0FF3070474FF00000704753706C617B
:103AA00073682053637265656E210000417667205C
:103AB00056616C25643A20253475200D0000000005
:103AC00000E100E004E100E008E100E00CE100E0DA
:103AD00010E100E0000000000000004F00000007BF
:103AE000000700147F147F14242A7F2A122313084E
:103AF000646236495522500005030000001C224133
:103B0000000041221C0014083E081408083E080862
:103B1000005030000008080808080060600000201D
:103B2000100804023E5149453E00427F4000426178
:103B30005149462141454B311814127F1027454504
:103B400045393C4A4949300171090503364949491B
:103B500036064949291E0036360000005636000058
:103B600008142241001414141414004122140802F1
:103B700001510906324979413E7E1111117E7F497A
:103B80004949363E414141227F4141221C7F4949FA
:103B900049417F090909013E4149497A7F080808DE
:103BA0007F00417F41002040413F017F08142241B6
:103BB0007F404040407F020C027F7F0408107F3E20
:103BC0004141413E7F090909063E4151215E7F097D
:103BD000192946464949493101017F01013F4040C9
:103BE000403F1F2040201F3F4038403F63140814CF
:103BF0006307087008076151494543007F41410050
:103C000002040810200041417F0004020102044028
:103C100040404040000102040020545454787F4842
:103C20004444383844444420384444487F38545449
:103C30005418087E0901020C5252523E7F080404B7
:103C40007800447D40002040443D007F102844001F
:103C500000417F40007C041804787C080404783814
:103C6000444444387C14141408081414187C7C0848
:103C70000404084854545420043F4440203C40402D
:103C8000207C1C2040201C3C4030403C4428102814
:103C9000440C5050503C4464544C4400083641009D
:103CA00000007F000000413608000201020402000B
:103CB0000000000003FD12E302AEE3039400E303FF
:103CC000A85FE30381B7E303823FE303A052E3036A
:103CD000A100E303A200E302A4E303B111E303B2F2
:103CE00023E303B3E2E311B8010203040506080A63
:103CF0000C0E1013161A1EE303BB01E303BC3FE3D3
:103D000002AFE30040420F0000201C0080841E0030
:103D100000802500999E36000040380000093D00D3
:103D200000803E0000004B00404B4C0000204E0045
:103D3000808D5B0000C05D000080700000127A0082
:103D400000007D0080969800001BB7000080BB003B
:103D5000C0E8CE00647ADA000024F4000000FA0023
:103D600080A81201002D310100366E0140787D01DE
:103D700000E10F4004E10F4008E10F4030313233E1
:103D80003435363738396162636465660000000097
:083D90004552524F52000000A1
:103D980001000000F8F8F8F8F8F8F8FFFFFFFFFF57
:103DA800FFFFFFFFFFFFFFFFFFFFFFFFFFFFFFFF1B
:103DB800FFFFFFFFFFFFFFFFFFFFFFFFFFFFFFFF0B
:103DC800FFFFFFFFFFFFFFFFFFFFFFFF00000000F7
:043DD80000000000E7
:0400000300001A716E
:00000001FF
